{
  "contractName": "PublicDocument",
  "abi": [
    {
      "constant": false,
      "inputs": [
        {
          "name": "recipient",
          "type": "address"
        },
        {
          "name": "document",
          "type": "bytes32"
        }
      ],
      "name": "issueDocument",
      "outputs": [
        {
          "name": "",
          "type": "bool"
        }
      ],
      "payable": true,
      "stateMutability": "payable",
      "type": "function"
    },
    {
      "constant": false,
      "inputs": [
        {
          "name": "recipient",
          "type": "address"
        },
        {
          "name": "document",
          "type": "bytes32"
        }
      ],
      "name": "revokeDocument",
      "outputs": [
        {
          "name": "",
          "type": "bool"
        }
      ],
      "payable": false,
      "stateMutability": "nonpayable",
      "type": "function"
    },
    {
      "constant": true,
      "inputs": [
        {
          "name": "recipient",
          "type": "address"
        },
        {
          "name": "document",
          "type": "bytes32"
        }
      ],
      "name": "verifyDocument",
      "outputs": [
        {
          "name": "",
          "type": "bool"
        }
      ],
      "payable": false,
      "stateMutability": "view",
      "type": "function"
    },
    {
      "constant": true,
      "inputs": [],
      "name": "owner",
      "outputs": [
        {
          "name": "",
          "type": "address"
        }
      ],
      "payable": false,
      "stateMutability": "view",
      "type": "function"
    },
    {
      "constant": false,
      "inputs": [],
      "name": "widthraw",
      "outputs": [],
      "payable": false,
      "stateMutability": "nonpayable",
      "type": "function"
    },
    {
      "constant": true,
      "inputs": [
        {
          "name": "document",
          "type": "bytes32"
        }
      ],
      "name": "getDocument",
      "outputs": [
        {
          "name": "",
          "type": "address"
        },
        {
          "name": "",
          "type": "address"
        },
        {
          "name": "",
          "type": "uint256"
        }
      ],
      "payable": false,
      "stateMutability": "view",
      "type": "function"
    },
    {
      "constant": false,
      "inputs": [
        {
          "name": "owner",
          "type": "address"
        },
        {
          "name": "recipient",
          "type": "address"
        },
        {
          "name": "document",
          "type": "bytes32"
        }
      ],
      "name": "transferDocument",
      "outputs": [
        {
          "name": "",
          "type": "bool"
        }
      ],
      "payable": false,
      "stateMutability": "nonpayable",
      "type": "function"
    },
    {
      "constant": false,
      "inputs": [
        {
          "name": "newOwner",
          "type": "address"
        }
      ],
      "name": "transferOwnership",
      "outputs": [],
      "payable": false,
      "stateMutability": "nonpayable",
      "type": "function"
    },
    {
      "payable": true,
      "stateMutability": "payable",
      "type": "fallback"
    },
    {
      "anonymous": false,
      "inputs": [
        {
          "indexed": false,
          "name": "from",
          "type": "address"
        },
        {
          "indexed": false,
          "name": "to",
          "type": "address"
        },
        {
          "indexed": false,
          "name": "document",
          "type": "bytes32"
        }
      ],
      "name": "DocumentTransfered",
      "type": "event"
    },
    {
      "anonymous": false,
      "inputs": [
        {
          "indexed": false,
          "name": "recipient",
          "type": "address"
        },
        {
          "indexed": false,
          "name": "document",
          "type": "bytes32"
        }
      ],
      "name": "DocumentRevoked",
      "type": "event"
    },
    {
      "anonymous": false,
      "inputs": [
        {
          "indexed": false,
          "name": "recipient",
          "type": "address"
        },
        {
          "indexed": false,
          "name": "document",
          "type": "bytes32"
        }
      ],
      "name": "DocumentIssued",
      "type": "event"
    },
    {
      "anonymous": false,
      "inputs": [
        {
          "indexed": true,
          "name": "previousOwner",
          "type": "address"
        },
        {
          "indexed": true,
          "name": "newOwner",
          "type": "address"
        }
      ],
      "name": "OwnershipTransferred",
      "type": "event"
    }
  ],
  "bytecode": "0x6060604052336000806101000a81548173ffffffffffffffffffffffffffffffffffffffff021916908373ffffffffffffffffffffffffffffffffffffffff160217905550610c95806100536000396000f30060606040526004361061008e576000357c0100000000000000000000000000000000000000000000000000000000900463ffffffff1680634889da63146101005780636ecf6c171461015357806373fea503146101b15780638da5cb5b1461020f578063aa3ba17914610264578063b10d6b4114610279578063ccb893f71461031a578063f2fde38b14610397575b60003411151561009d57600080fd5b6000809054906101000a900473ffffffffffffffffffffffffffffffffffffffff1673ffffffffffffffffffffffffffffffffffffffff166108fc349081150290604051600060405180830381858888f1935050505015156100fe57600080fd5b005b610139600480803573ffffffffffffffffffffffffffffffffffffffff16906020019091908035600019169060200190919050506103d0565b604051808215151515815260200191505060405180910390f35b341561015e57600080fd5b610197600480803573ffffffffffffffffffffffffffffffffffffffff16906020019091908035600019169060200190919050506105a4565b604051808215151515815260200191505060405180910390f35b34156101bc57600080fd5b6101f5600480803573ffffffffffffffffffffffffffffffffffffffff16906020019091908035600019169060200190919050506106f9565b604051808215151515815260200191505060405180910390f35b341561021a57600080fd5b6102226107a8565b604051808273ffffffffffffffffffffffffffffffffffffffff1673ffffffffffffffffffffffffffffffffffffffff16815260200191505060405180910390f35b341561026f57600080fd5b6102776107cd565b005b341561028457600080fd5b61029e6004808035600019169060200190919050506108a2565b604051808473ffffffffffffffffffffffffffffffffffffffff1673ffffffffffffffffffffffffffffffffffffffff1681526020018373ffffffffffffffffffffffffffffffffffffffff1673ffffffffffffffffffffffffffffffffffffffff168152602001828152602001935050505060405180910390f35b341561032557600080fd5b61037d600480803573ffffffffffffffffffffffffffffffffffffffff1690602001909190803573ffffffffffffffffffffffffffffffffffffffff1690602001909190803560001916906020019091905050610951565b604051808215151515815260200191505060405180910390f35b34156103a257600080fd5b6103ce600480803573ffffffffffffffffffffffffffffffffffffffff16906020019091905050610b14565b005b60008073ffffffffffffffffffffffffffffffffffffffff1660016000846000191660001916815260200190815260200160002060000160009054906101000a900473ffffffffffffffffffffffffffffffffffffffff1673ffffffffffffffffffffffffffffffffffffffff1614151561044a57600080fd5b3360016000846000191660001916815260200190815260200160002060000160006101000a81548173ffffffffffffffffffffffffffffffffffffffff021916908373ffffffffffffffffffffffffffffffffffffffff1602179055508260016000846000191660001916815260200190815260200160002060010160006101000a81548173ffffffffffffffffffffffffffffffffffffffff021916908373ffffffffffffffffffffffffffffffffffffffff16021790555043600160008460001916600019168152602001908152602001600020600201819055507f5464d89fdaa880f0b597e1dcd8b19e90b68b4d6d8e3e43f49d09ad8924a55c828383604051808373ffffffffffffffffffffffffffffffffffffffff1673ffffffffffffffffffffffffffffffffffffffff16815260200182600019166000191681526020019250505060405180910390a16001905092915050565b60008273ffffffffffffffffffffffffffffffffffffffff1660016000846000191660001916815260200190815260200160002060010160009054906101000a900473ffffffffffffffffffffffffffffffffffffffff1673ffffffffffffffffffffffffffffffffffffffff1614151561061e57600080fd5b600060016000846000191660001916815260200190815260200160002060010160006101000a81548173ffffffffffffffffffffffffffffffffffffffff021916908373ffffffffffffffffffffffffffffffffffffffff1602179055507fc0dffbae164b623d0161811974c3fd52d435c3c91eaa665dbf2e13d74db914ae8383604051808373ffffffffffffffffffffffffffffffffffffffff1673ffffffffffffffffffffffffffffffffffffffff16815260200182600019166000191681526020019250505060405180910390a16001905092915050565b60008073ffffffffffffffffffffffffffffffffffffffff168373ffffffffffffffffffffffffffffffffffffffff16141580156107a057508273ffffffffffffffffffffffffffffffffffffffff1660016000846000191660001916815260200190815260200160002060010160009054906101000a900473ffffffffffffffffffffffffffffffffffffffff1673ffffffffffffffffffffffffffffffffffffffff16145b905092915050565b6000809054906101000a900473ffffffffffffffffffffffffffffffffffffffff1681565b6000809054906101000a900473ffffffffffffffffffffffffffffffffffffffff1673ffffffffffffffffffffffffffffffffffffffff163373ffffffffffffffffffffffffffffffffffffffff1614151561082857600080fd5b6000809054906101000a900473ffffffffffffffffffffffffffffffffffffffff1673ffffffffffffffffffffffffffffffffffffffff166108fc3073ffffffffffffffffffffffffffffffffffffffff16319081150290604051600060405180830381858888f1935050505015156108a057600080fd5b565b600080600060016000856000191660001916815260200190815260200160002060000160009054906101000a900473ffffffffffffffffffffffffffffffffffffffff1660016000866000191660001916815260200190815260200160002060010160009054906101000a900473ffffffffffffffffffffffffffffffffffffffff16600160008760001916600019168152602001908152602001600020600201549250925092509193909250565b60008373ffffffffffffffffffffffffffffffffffffffff163373ffffffffffffffffffffffffffffffffffffffff1614151561098d57600080fd5b8373ffffffffffffffffffffffffffffffffffffffff1660016000846000191660001916815260200190815260200160002060010160009054906101000a900473ffffffffffffffffffffffffffffffffffffffff1673ffffffffffffffffffffffffffffffffffffffff16141515610a0557600080fd5b8260016000846000191660001916815260200190815260200160002060010160006101000a81548173ffffffffffffffffffffffffffffffffffffffff021916908373ffffffffffffffffffffffffffffffffffffffff1602179055507f2d72a3e944e8feae8d85647a0a70858562be2a54859852cd6152fff1ac035d64848484604051808473ffffffffffffffffffffffffffffffffffffffff1673ffffffffffffffffffffffffffffffffffffffff1681526020018373ffffffffffffffffffffffffffffffffffffffff1673ffffffffffffffffffffffffffffffffffffffff1681526020018260001916600019168152602001935050505060405180910390a1600190509392505050565b6000809054906101000a900473ffffffffffffffffffffffffffffffffffffffff1673ffffffffffffffffffffffffffffffffffffffff163373ffffffffffffffffffffffffffffffffffffffff16141515610b6f57600080fd5b600073ffffffffffffffffffffffffffffffffffffffff168173ffffffffffffffffffffffffffffffffffffffff1614151515610bab57600080fd5b8073ffffffffffffffffffffffffffffffffffffffff166000809054906101000a900473ffffffffffffffffffffffffffffffffffffffff1673ffffffffffffffffffffffffffffffffffffffff167f8be0079c531659141344cd1fd0a4f28419497f9722a3daafe3b4186f6b6457e060405160405180910390a3806000806101000a81548173ffffffffffffffffffffffffffffffffffffffff021916908373ffffffffffffffffffffffffffffffffffffffff160217905550505600a165627a7a723058202972365c88037c4dbc8f428f4dcecf5187bb308b494b68eeb16905f3f5ed347c0029",
  "source": "pragma solidity ^0.4.16;\n\nimport \"../core/BasicDocument.sol\";\nimport \"../core/RevokableDocument.sol\";\nimport \"../core/TransfarableDocument.sol\";\n\n/**\n * @title PublicDocument\n * @dev Anyone who knows the contract address can issue and revoke documents.\n */\ncontract PublicDocument is BasicDocument, RevokableDocument, TransfarableDocument {\n    /**\n     * @dev Returns document's information.\n     * @dev Can be called by anyone who knows the contract address.\n     */\n    function getDocument(bytes32 document) public constant returns (address, address, uint256) {\n        return (documents[document].issuer, documents[document].recipient, documents[document].block);\n    }\n    \n    /**\n     * @dev Verifies if the document belongs to the given recipient.\n     */\n    function verifyDocument(address recipient, bytes32 document) public constant returns (bool) {\n        return recipient != address(0) && documents[document].recipient == recipient;\n    }\n\n    /**\n     * @dev This contract accepts donations.\n     */\n    function () payable public {\n        require(msg.value > 0);\n        owner.transfer(msg.value);\n    }\n\n    /**\n     * Forwards all funds to the owner account.\n     */\n    function widthraw() onlyOwner external {\n        owner.transfer(this.balance);\n    }\n}",
  "sourcePath": "/contracts/document/PublicDocument.sol",
  "compiler": {
    "name": "solc",
    "version": "0.4.18+commit.9cf6e910.Emscripten.clang"
  },
  "schemaVersion": "1.0.1",
  "updatedAt": "2017-11-14T10:00:03.449Z"
}