{
  "contractName": "TransfarableDocument",
  "abi": [
    {
      "constant": false,
      "inputs": [
        {
          "name": "recipient",
          "type": "address"
        },
        {
          "name": "document",
          "type": "bytes32"
        }
      ],
      "name": "issueDocument",
      "outputs": [
        {
          "name": "",
          "type": "bool"
        }
      ],
      "payable": true,
      "stateMutability": "payable",
      "type": "function"
    },
    {
      "constant": true,
      "inputs": [],
      "name": "owner",
      "outputs": [
        {
          "name": "",
          "type": "address"
        }
      ],
      "payable": false,
      "stateMutability": "view",
      "type": "function"
    },
    {
      "constant": false,
      "inputs": [
        {
          "name": "owner",
          "type": "address"
        },
        {
          "name": "recipient",
          "type": "address"
        },
        {
          "name": "document",
          "type": "bytes32"
        }
      ],
      "name": "transferDocument",
      "outputs": [
        {
          "name": "",
          "type": "bool"
        }
      ],
      "payable": false,
      "stateMutability": "nonpayable",
      "type": "function"
    },
    {
      "constant": false,
      "inputs": [
        {
          "name": "newOwner",
          "type": "address"
        }
      ],
      "name": "transferOwnership",
      "outputs": [],
      "payable": false,
      "stateMutability": "nonpayable",
      "type": "function"
    },
    {
      "anonymous": false,
      "inputs": [
        {
          "indexed": false,
          "name": "from",
          "type": "address"
        },
        {
          "indexed": false,
          "name": "to",
          "type": "address"
        },
        {
          "indexed": false,
          "name": "document",
          "type": "bytes32"
        }
      ],
      "name": "DocumentTransfered",
      "type": "event"
    },
    {
      "anonymous": false,
      "inputs": [
        {
          "indexed": false,
          "name": "recipient",
          "type": "address"
        },
        {
          "indexed": false,
          "name": "document",
          "type": "bytes32"
        }
      ],
      "name": "DocumentIssued",
      "type": "event"
    },
    {
      "anonymous": false,
      "inputs": [
        {
          "indexed": true,
          "name": "previousOwner",
          "type": "address"
        },
        {
          "indexed": true,
          "name": "newOwner",
          "type": "address"
        }
      ],
      "name": "OwnershipTransferred",
      "type": "event"
    }
  ],
  "bytecode": "0x6060604052336000806101000a81548173ffffffffffffffffffffffffffffffffffffffff021916908373ffffffffffffffffffffffffffffffffffffffff160217905550610702806100536000396000f300606060405260043610610062576000357c0100000000000000000000000000000000000000000000000000000000900463ffffffff1680634889da63146100675780638da5cb5b146100ba578063ccb893f71461010f578063f2fde38b1461018c575b600080fd5b6100a0600480803573ffffffffffffffffffffffffffffffffffffffff16906020019091908035600019169060200190919050506101c5565b604051808215151515815260200191505060405180910390f35b34156100c557600080fd5b6100cd610399565b604051808273ffffffffffffffffffffffffffffffffffffffff1673ffffffffffffffffffffffffffffffffffffffff16815260200191505060405180910390f35b341561011a57600080fd5b610172600480803573ffffffffffffffffffffffffffffffffffffffff1690602001909190803573ffffffffffffffffffffffffffffffffffffffff16906020019091908035600019169060200190919050506103be565b604051808215151515815260200191505060405180910390f35b341561019757600080fd5b6101c3600480803573ffffffffffffffffffffffffffffffffffffffff16906020019091905050610581565b005b60008073ffffffffffffffffffffffffffffffffffffffff1660016000846000191660001916815260200190815260200160002060000160009054906101000a900473ffffffffffffffffffffffffffffffffffffffff1673ffffffffffffffffffffffffffffffffffffffff1614151561023f57600080fd5b3360016000846000191660001916815260200190815260200160002060000160006101000a81548173ffffffffffffffffffffffffffffffffffffffff021916908373ffffffffffffffffffffffffffffffffffffffff1602179055508260016000846000191660001916815260200190815260200160002060010160006101000a81548173ffffffffffffffffffffffffffffffffffffffff021916908373ffffffffffffffffffffffffffffffffffffffff16021790555043600160008460001916600019168152602001908152602001600020600201819055507f5464d89fdaa880f0b597e1dcd8b19e90b68b4d6d8e3e43f49d09ad8924a55c828383604051808373ffffffffffffffffffffffffffffffffffffffff1673ffffffffffffffffffffffffffffffffffffffff16815260200182600019166000191681526020019250505060405180910390a16001905092915050565b6000809054906101000a900473ffffffffffffffffffffffffffffffffffffffff1681565b60008373ffffffffffffffffffffffffffffffffffffffff163373ffffffffffffffffffffffffffffffffffffffff161415156103fa57600080fd5b8373ffffffffffffffffffffffffffffffffffffffff1660016000846000191660001916815260200190815260200160002060010160009054906101000a900473ffffffffffffffffffffffffffffffffffffffff1673ffffffffffffffffffffffffffffffffffffffff1614151561047257600080fd5b8260016000846000191660001916815260200190815260200160002060010160006101000a81548173ffffffffffffffffffffffffffffffffffffffff021916908373ffffffffffffffffffffffffffffffffffffffff1602179055507f2d72a3e944e8feae8d85647a0a70858562be2a54859852cd6152fff1ac035d64848484604051808473ffffffffffffffffffffffffffffffffffffffff1673ffffffffffffffffffffffffffffffffffffffff1681526020018373ffffffffffffffffffffffffffffffffffffffff1673ffffffffffffffffffffffffffffffffffffffff1681526020018260001916600019168152602001935050505060405180910390a1600190509392505050565b6000809054906101000a900473ffffffffffffffffffffffffffffffffffffffff1673ffffffffffffffffffffffffffffffffffffffff163373ffffffffffffffffffffffffffffffffffffffff161415156105dc57600080fd5b600073ffffffffffffffffffffffffffffffffffffffff168173ffffffffffffffffffffffffffffffffffffffff161415151561061857600080fd5b8073ffffffffffffffffffffffffffffffffffffffff166000809054906101000a900473ffffffffffffffffffffffffffffffffffffffff1673ffffffffffffffffffffffffffffffffffffffff167f8be0079c531659141344cd1fd0a4f28419497f9722a3daafe3b4186f6b6457e060405160405180910390a3806000806101000a81548173ffffffffffffffffffffffffffffffffffffffff021916908373ffffffffffffffffffffffffffffffffffffffff160217905550505600a165627a7a723058208c820627cd994b7553b0304f8366be983c075e8f7842a507dd5ef5854c567eba0029",
  "source": "pragma solidity ^0.4.16;\n\nimport \"./BasicDocument.sol\";\n\n/**\n * @title TransfarableDocument\n * @dev This contract supports documents transfer between accounts.\n */\ncontract TransfarableDocument is BasicDocument {\n    event DocumentTransfered(address from, address to, bytes32 document);\n\n    /**\n     * @dev Transfers existing document to another account.\n     */\n    function transferDocument(address owner, address recipient, bytes32 document) external returns (bool) {\n        require(msg.sender == owner);\n        require(documents[document].recipient == owner);\n        documents[document].recipient = recipient;\n\n        DocumentTransfered(owner, recipient, document);\n        \n        return true;\n    }\n}",
  "sourcePath": "/contracts/core/TransfarableDocument.sol",
  "compiler": {
    "name": "solc",
    "version": "0.4.18+commit.9cf6e910.Emscripten.clang"
  },
  "schemaVersion": "1.0.1",
  "updatedAt": "2017-11-14T10:00:03.448Z"
}